:100000000C94B8040C94E0040C94E0040C94E00408
:100010000C94E0040C94E0040C94E0040C94E004D0
:100020000C94E0040C94E0040C94030F0C94750FF2
:100030000C94E0040C94E0040C94E0040C94E004B0
:100040000C94E0040C946F080C94E0040C94E0040D
:100050000C94E0040C94E0040C94E0040C948207EB
:100060000C94E0040C94E0040C94E0040C94E00480
:100070000C94E0040C94E0040C94E0040C94E00470
:100080000C940D090C94E0040C94E0040C94E0042E
:100090000C94E0040C94E0040C94E0040C94E00450
:1000A0000C94E0040C94E0040C94E00417061A0687
:1000B00009060D0611063B063B063B061E062206F8
:1000C00026062C0630063B063606B206B706BC06E8
:1000D000C606D0061A071A071A07DA06E406EE065D
:1000E000F80605071A070D07F0F89C8E8783878EA0
:1000F0009CF8F00000FEFF0303030303070EFCF867
:100100000000FEFF0303030303070EFCF80000FFDB
:10011000FF00000000000000FFFF0000FEFF8383DF
:10012000838383C7EE7C380000F8FC0E07030303CB
:10013000070EFCF800003F7FE0C08080C0E07F3FFA
:10014000FFFF01010101010101FFFF0000FFFF0CA2
:100150000C0C0C1C3E77E3C100007FFFC0C0C0C088
:10016000C0E0703F1F00001F3F70E0C0C0C0E070E3
:100170003F1F00007FFFC1C1C1C1C1E3773E1C002A
:10018000001F3F70E0C0C0C0E0703F1F00000000D3
:100190000001FFFF01000000000000002400270014
:1001A0002A002D003000D5F08D14A1C881CFD9F1DF
:1001B000AF20001402130212021502070208020403
:1001C000010C010601004E0059004E005900506C10
:1001D000617920616761696E3F20592F4E006C6F15
:1001E000736500647261770077696E0041726475AF
:1001F000626F7920706C6179732073636973736FB8
:1002000072006C6F736500647261770077696E00CD
:1002100041726475626F7920706C617973207061CE
:10022000706572006C6F7365006472617700776946
:100230006E0041726475626F7920706C6179732011
:10024000726F636B00596F7572207475726E3A200D
:1002500073636973736F7200596F7572207475726E
:100260006E3A20706170657200596F7572207475F6
:10027000726E3A20726F636B00596F7572207475DD
:10028000726E3A2073636973736F7200596F75727F
:10029000207475726E3A20706170657200596F75C6
:1002A00072207475726E3A20726F636B00526F73B6
:1002B00068616D626F2E6578650000000000003E89
:1002C0005B4F5B3E3E6B4F6B3E1C3E7C3E1C183CC6
:1002D0007E3C181C577D571C1C5E7F5E1C00183C22
:1002E0001800FFE7C3E7FF0018241800FFE7DBE76B
:1002F000FF30483A060E2629792926407F05050752
:10030000407F05253F5A3CE73C5A7F3E1C1C0808AD
:100310001C1C3E7F14227F22145F5F005F5F060972
:100320007F017F006689956A606060606094A2FFCB
:10033000A29408047E040810207E201008082A1CBD
:1003400008081C2A08081E101010100C1E0C1E0C89
:1003500030383E3830060E3E0E0600000000000029
:10036000005F00000007000700147F147F14242A98
:100370007F2A12231308646236495620500008076A
:100380000300001C2241000041221C002A1C7F1C8B
:100390002A08083E0808008070300008080808088D
:1003A000000060600020100804023E5149453E00F4
:1003B000427F400072494949462141494D33181452
:1003C000127F1027454545393C4A494931412111A1
:1003D00009073649494936464949291E0000140093
:1003E00000004034000000081422411414141414B6
:1003F000004122140802015909063E415D594E7C14
:100400001211127C7F494949363E414141227F41C8
:1004100041413E7F494949417F090909013E414126
:1004200051737F0808087F00417F41002040413F11
:10043000017F081422417F404040407F021C027F20
:100440007F0408107F3E4141413E7F090909063E75
:100450004151215E7F091929462649494932030144
:100460007F01033F4040403F1F2040201F3F403856
:10047000403F631408146303047804036159494D31
:1004800043007F4141410204081020004141417F67
:1004900004020102044040404040000307080020DD
:1004A000545478407F2844443838444444283844DD
:1004B00044287F385454541800087E090218A4A414
:1004C0009C787F0804047800447D40002040403D33
:1004D000007F1028440000417F40007C04780478AD
:1004E0007C080404783844444438FC182424181840
:1004F000242418FC7C08040408485454542404049C
:100500003F44243C4040207C1C2040201C3C403088
:10051000403C44281028444C9090907C4464544CB7
:100520004400083641000000770000004136080012
:1005300002010204023C2623263C1EA1A161123ABC
:100540004040207A38545455592155557941215409
:10055000547841215554784020545579400C1E520E
:1005600072123955555559395454545939555454B2
:10057000580000457C410002457D420001457C4019
:10058000F0292429F0F0282528F07C545545002036
:1005900054547C547C0A097F4932494949323248D3
:1005A000484832324A4848303A4141217A3A42403A
:1005B0002078009DA0A07D39444444393D4040400E
:1005C0003D3C24FF2424487E4943662B2FFC2F2BDF
:1005D000FF0929F620C0887E090320545479410080
:1005E00000447D413048484A32384040227A007AFF
:1005F0000A0A727D0D19317D2629292F28262929DD
:10060000292630484D4020380808080808080808FE
:10061000382F10C8ACBA2F102834FA00007B000025
:1006200008142A142222142A14089500220095AADC
:10063000005500AAAA55AA55AA000000FF001010F4
:1006400010FF00141414FF001010FF00FF1010F032
:1006500010F0141414FC001414F700FF0000FF0045
:10066000FF1414F404FC141417101F10101F101F93
:100670001414141F00101010F0000000001F1010C0
:1006800010101F10101010F010000000FF101010BC
:10069000101010101010FF10000000FF140000FFD9
:1006A00000FF00001F10170000FC04F414141710C2
:1006B000171414F404F40000FF00F71414141414B5
:1006C0001414F700F7141414171410101F101F142B
:1006D0001414F4141010F010F000001F101F00008C
:1006E000001F14000000FC140000F010F01010FFB8
:1006F00010FF141414FF141010101F00000000F05D
:1007000010FFFFFFFFFFF0F0F0F0F0FFFFFF000031
:10071000000000FFFF0F0F0F0F0F38444438447CD8
:100720002A2A3E147E02020606027E027E026355DB
:100730004941633844443C04407E201E2006027E2A
:10074000020299A5E7A5991C2A492A1C4C7201723C
:100750004C304A4D4D303048784830BC625A463DA6
:100760003E494949007E0101017E2A2A2A2A2A445B
:10077000445F444440514A444040444A5140000090
:10078000FF0103E080FF000008086B6B083612369B
:100790002436060F090F060000181800000010107C
:1007A000003040FF0101001F01011E00191D17123A
:1007B000003C3C3C3C000000000006011501260105
:1007C00037014A015D01720188019F01B801D20120
:1007D000EE010B022A024B026E029302BA02E402FD
:1007E00010033F037003A403DC03170455049704AC
:1007F000DD0427057505C80520067D06E0064907C6
:10080000B8072D08A9082D09B9094D0AEA0A900B65
:10081000400CFA0CC00D910E6F0F5A1053115B1261
:1008200072139A14D41520178018F519801B231DF4
:10083000DE1EB420A622B524E4263429A72B402EA0
:100840000031EA330037453ABC3D68414C456B49BD
:10085000C84D68524F57805C006210111213151674
:1008600017181A1C1D1F21232527292C2E31343738
:100870003A3E4145494E52575C62686E757B838BA8
:10088000939CA5AFB9C4D0DCE9F7000000020009D1
:100890000F0000030401000C000000000000000035
:1008A000000000000000000000080B00020202012E
:1008B00000090400000102020000052400100105E7
:1008C0002401010104240206052406000107058114
:1008D0000310004009040100020A0000000705029D
:1008E00002400000070583024000000403090412CF
:1008F000010002EF020140412336800001010203A2
:100900000141726475696E6F204C4C430041726402
:1009100075696E6F204C656F6E6172646F000408BC
:1009200002011040804010204080408008020401F5
:100930008040201002011080102040402000000064
:1009400000250028002B002E0031000404040404BC
:100950000304050202020204030202020206060662
:1009600006060604040202020404030119170A170A
:1009700011241FBECFEFDAE0DEBFCDBF11E0A0E053
:10098000B1E0E2E2F5E302C005900D92A635B107B1
:10099000D9F726E0A6E5B1E001C01D92A432B20766
:1009A000E1F714E0C7EBD4E004C02197FE010E94F8
:1009B0007718C63BD107C9F70E94E0110C94841A3E
:1009C0000C940000CF92DF92EF92FF920F931F934F
:1009D000CF93DF936C017A018B01C0E0D0E0CE159C
:1009E000DF0589F0D8016D918D01D601ED91FC9163
:1009F0000190F081E02DC6010995892B11F47E014B
:100A000002C02196ECCFC701DF91CF911F910F91CA
:100A1000FF90EF90DF90CF900895089580E090E0F0
:100A200008950F931F93CF93DF93EC0188819981F1
:100A3000009729F02A813B812617370788F48B011C
:100A40006F5F7F4F0E94AA19009761F09983888396
:100A50001B830A832C813D81232B11F4FC0110821E
:100A600081E001C080E0DF91CF911F910F91089547
:100A7000CF93DF93EC0188819981009711F00E9458
:100A80001219198218821D821C821B821A82DF9120
:100A9000CF910895EF92FF920F931F93CF93DF931F
:100AA000EC01FB0186179707B9F000811181011550
:100AB000110539F0E480F580B7010E94110581111C
:100AC00004C0CE010E94380507C0FD82EC82B80147
:100AD000888199810E947D1ACE01DF91CF911F916B
:100AE0000F91FF90EF900895FC01808191810C940B
:100AF0001219EF92FF920F931F93CF93DF93EC01A4
:100B0000198218821B821A821D821C82611571054E
:100B100009F18B01CB010E94CC177C01BC01CE01F5
:100B20000E941105811109C0CE01DF91CF911F9163
:100B30000F91FF90EF900C943805FD82EC82B80184
:100B400088819981DF91CF911F910F91FF90EF9054
:100B50000C94C517DF91CF911F910F91FF90EF90EB
:100B60000895EF92FF920F931F93CF93DF93EC01C1
:100B7000198218821B821A821D821C8261157105DE
:100B800021F18B01FB0101900020E9F731977F01F2
:100B9000E61AF70AB7010E941105811109C0CE01BA
:100BA000DF91CF911F910F91FF90EF900C9438053A
:100BB000FD82EC82B80188819981DF91CF911F91EC
:100BC0000F91FF90EF900C947D1ADF91CF911F91C0
:100BD0000F91FF90EF900895362F90E0FC01E657BB
:100BE000F74F4491FC01E25EF64F2491FC01E55B76
:100BF000F64F8491882309F451C04423E1F150E079
:100C0000FA013197EF30F105B0F5EA5AFF4F0C9435
:100C10007718909180009F7707C0909180009F7D0A
:100C200003C090918000977F9093800024C094B57A
:100C30009F7702C094B59F7D94BD1DC09091900098
:100C40009F7707C0909190009F7D03C09091900086
:100C5000977F909390000FC09091C0009F7703C042
:100C60009091C0009F7D9093C00005C09091C200FC
:100C7000977F9093C200E82FF0E0EE0FFF1FE35C38
:100C8000F64FA591B4918FB7F894EC91311103C050
:100C900020952E2301C02E2B2C938FBF0895CF9328
:100CA000DF9390E0FC01E25EF64F2491FC01E55BEE
:100CB000F64F8491882361F190E0880F991FFC0121
:100CC000E856FE4FC591D491FC01E35CF64FA59127
:100CD000B491611109C09FB7F8948881209582234F
:100CE0008883EC912E230BC0623061F49FB7F89497
:100CF0003881822F809583238883EC912E2B2C932F
:100D00009FBF06C08FB7F894E8812E2B28838FBF32
:100D1000DF91CF9108951F93CF93DF93182FEB01AD
:100D200061E00E944F06209711F460E004C0CF3FBD
:100D3000D10539F461E0812FDF91CF911F910C949F
:100D4000EC05E12FF0E0E657F74FE4914E2F50E02D
:100D5000FA013197EF30F10508F06CC0EB59FF4F05
:100D60000C94771884B5806884BDC7BD68C084B50D
:100D7000806284BDC8BD63C080918000806880931C
:100D80008000D0938900C093880059C08091800072
:100D9000806280938000D0938B00C0938A004FC004
:100DA00080918000886080938000D0938D00C093F4
:100DB0008C0045C080919000806880939000D09313
:100DC0009900C09398003BC080919000806280930E
:100DD0009000D0939B00C0939A0031C08091900006
:100DE000886080939000D0939D00C0939C0027C0A2
:100DF0008091C00080688093C0008091C0008F7B8C
:100E00008093C000C093CF001AC08091C000806260
:100E10008093C000C093D00012C08091C20088604F
:100E20008093C2008091C2008B7F8093C200C093E8
:100E3000D20005C0C038D1050CF07CCF76CFDF9151
:100E4000CF911F9108953FB7F894809175019091CB
:100E50007601A0917701B091780126B5A89B05C0D5
:100E60002F3F19F00196A11DB11D3FBFBA2FA92F29
:100E7000982F8827820F911DA11DB11DBC01CD01A6
:100E800042E0660F771F881F991F4A95D1F7089592
:100E90008F929F92AF92BF92CF92DF92EF92FF928A
:100EA0006B017C010E9423074B015C01C114D1043A
:100EB000E104F104F1F00E942307DC01CB01881961
:100EC0009909AA09BB09883E9340A105B10570F3B1
:100ED00021E0C21AD108E108F10888EE880E83E00B
:100EE000981EA11CB11CC114D104E104F10419F72E
:100EF000DDCFFF90EF90DF90CF90BF90AF909F90AD
:100F00008F9008951F920F920FB60F9211242F9376
:100F10003F938F939F93AF93BF938091570190918D
:100F20005801A0915901B0915A013091740123E008
:100F3000230F2D3720F40196A11DB11D05C026E811
:100F4000230F0296A11DB11D2093740180935701B8
:100F500090935801A0935901B0935A018091750163
:100F600090917601A0917701B09178010196A11D31
:100F7000B11D8093750190937601A0937701B09392
:100F80007801BF91AF919F918F913F912F910F90D9
:100F90000FBE0F901F9018958FB12CB193B130E018
:100FA0002095309520743327A90123E05595479566
:100FB0002A95E1F7292F30E02095309520713327CD
:100FC0003595279535952795242B8095807F822B05
:100FD0000895FC0121912EBD9C5F21910DB407FE67
:100FE000FDCF2EBDE817F907C1F70DB407FEFDCF01
:100FF0000895CF92DF92EF92FF920F931F93CF93BA
:10100000E82FF0E0E659F64FC491E62FF0E06033A8
:1010100030F4E65AF74FE4910E2F10E006C0EE0FC1
:10102000FF1FE65AF84F059114916801E12CF12C4D
:1010300060E074E284EF90E0A70196010E94DD1762
:10104000BA01A901415051096109710941155105C0
:1010500081E06807710580F060E970ED83E090E061
:10106000A70196010E94DD17BA01A901415051095B
:101070006109710983E001C081E0C130C9F0C3306A
:1010800031F590919100987F892B80939100509336
:10109000990040939800109373010093720181E0CE
:1010A00080937101809171008260809371000FC004
:1010B00090918100987F892B8093810050938900C3
:1010C0004093880080916F00826080936F00CF9181
:1010D0001F910F91FF90EF90DF90CF9008951F9296
:1010E0000F920FB60F9211242F933F938F939F93DC
:1010F000AF93BF93EF93FF9380916A01882309F424
:101100004DC08091660190916701A0916801B091F6
:101110006901892B8A2B8B2B51F180918501E091FC
:101120008601F091870190818927808380916601F3
:1011300090916701A0916801B09169011816190694
:101140001A061B06A4F58091660190916701A09193
:101150006801B09169010197A109B1098093660105
:1011600090936701A0936801B093690120C0109229
:101170006A0180916F008D7F80936F00909185014F
:10118000E0918601F09187018081282F30E0892F3E
:1011900090E0809590958223932308C080918501EB
:1011A000E0918601F0918701908189278083FF91EA
:1011B000EF91BF91AF919F918F913F912F910F90A0
:1011C0000FBE0F901F901895E82FF0E0E659F64FEC
:1011D000E491E13019F0E33069F0089580916F00F7
:1011E0008D7F80936F0090918501E0918601F09151
:1011F000870108C01092710190918201E0918301F2
:10120000F09184018081282F30E0892F90E0809533
:10121000909582239323808308951F920F920FB697
:101220000F9211242F933F934F935F936F937F936C
:101230008F939F93AF93BF93EF93FF93809171012F
:10124000882349F080918201E0918301F09184012B
:1012500090818927808380915601882309F493C067
:1012600080916D0190916E01A0916F01B09170011C
:10127000892B8A2B8B2B09F486C080916D0190916C
:101280006E01A0916F01B09170010197A109B109A0
:1012900080936D0190936E01A0936F01B0937001E4
:1012A000892B8A2B8B2B09F06EC0E0916B01F0919A
:1012B0006C01BF016F5F7F4F70936C0160936B0196
:1012C0004491942F907F842F8F70903819F40E944E
:1012D000E408EBCF903981F43296F0936C01E093FF
:1012E0006B01FB016491909188018917F0F667FD0D
:1012F000DCCF0E94F907D9CF903E29F410926C01FF
:1013000010926B01D2CF903F19F4109256013BC05E
:1013100097FDCBCF3296F0936C01E0936B01FB010C
:10132000249130E0342BA0917201B09173010E949E
:1013300068186C507E4F8F4F9F4F28EE33E040E08F
:1013400050E00E94461820936D0130936E01409347
:101350006F015093700180916D0190916E01A09189
:101360006F01B0917001892B8A2B8B2B61F481E086
:1013700090E0A0E0B0E080936D0190936E01A093A7
:101380006F01B0937001FF91EF91BF91AF919F9169
:101390008F917F916F915F914F913F912F910F901E
:1013A0000FBE0F901F9018956038710518F54034E6
:1013B000510500F5A42FA695A695A695B0E0477017
:1013C0005527B695BA2FAA27B795A7956A0F7B1F01
:1013D000FC01E60FF71F81E090E001C0880F4A95FD
:1013E000EAF7222319F09489892B03C08095948908
:1013F0008923848B08952F923F924F925F926F9230
:101400007F928F929F92AF92BF92CF92DF92EF9294
:10141000FF920F931F93CF93DF93CDB7DEB72A9739
:101420000FB6F894DEBF0FBECDBF6A3091F4FC0159
:10143000E85EFB4F408132972081318158E0459F23
:10144000200D311D112431832083329711821082A7
:10145000C1C06D3009F4BEC09A878987885E9B4FF2
:101460009C838B83DC012C90E985FA85EA5EFB4F37
:1014700060807180E985FA85EC5EFB4FFA83E98331
:101480000081118100381105D4F0AB81BC812C9111
:10149000422F50E0E981FA8180819181F6E02F9F0F
:1014A000800D911D1124A981BA818D939C93E985AA
:1014B000FA85E75EFB4F208121115EC08BC0B0E44E
:1014C0006B16710414F7C801E5E02E9E800D911D86
:1014D000112418161906CCF6422C512CC301F8E041
:1014E0002F9E800D911D11241816190674F655E0D3
:1014F000659F900111243F832E83E12CF12C85E020
:10150000E816F10441F0EE81FF81EE0DFF1DE65477
:10151000FD4F349001C0312C630138E0932D917060
:101520009D834801882D801B8215B0F456018A2DB9
:101530008C19821568F42D81A501B40189859A85DD
:1015400038870E94D409AFEFAA1ABA0A3885EFCFBC
:10155000BFEF8B1A9B0AE6CF36943150C40CD51CD2
:101560003111DCCFEFEFEE1AFE0A040D151DF6E087
:10157000EF16F10421F689CF6AEF64039001659FAD
:10158000300D112420583F4F281739071CF5A98525
:10159000BA85ED91FC9111970190F081E02D6AE000
:1015A000CD012A960FB6F894DEBF0FBECDBFDF91F6
:1015B000CF911F910F91FF90EF90DF90CF90BF9050
:1015C000AF909F908F907F906F905F904F903F90E3
:1015D0002F9009942A960FB6F894DEBF0FBECDBFA8
:1015E000DF91CF911F910F91FF90EF90DF90CF90FF
:1015F000BF90AF909F908F907F906F905F904F9033
:101600003F902F9008952091650146E024029001BB
:101610001124BC01C90187579E4F0C944A05CF93F2
:10162000DF9382E090E09093BC058093BB0590939C
:10163000BE058093BD05CDEAD2E0FE016491611143
:1016400003C0C0E0D0E00EC0E091A701F091A80176
:101650000190F081E02D87EA91E009952196892B90
:1016600061F7EFCF21E040E050E0BE0187EA91E072
:101670000E94D4092196C038D105A1F7C0E0D0E07E
:1016800021E04FE350E0BE0187EA91E00E94D409D7
:101690002196C038D105A1F7C0E0D0E021E0AE012D
:1016A00060E070E087EA91E00E94D4092196C0349E
:1016B000D105A1F7C0E0D0E021E0AE016FE770E016
:1016C00087EA91E00E94D4092196C034D105A1F7A0
:1016D0002AE030E040E850E06AE070E080E090E02E
:1016E0000E94F70D29E030E04BE650E061E070E049
:1016F0008BE690E00E94F70D27E030E043E750E0F2
:1017000067E070E08DE690E00E94F70D29E030E0A0
:1017100045E750E061E070E085E790E00E94F70D5A
:1017200029E030E04EE750E061E070E086E790E0CD
:101730000E94F70D21E030E04EE750E069E070E0F4
:1017400086E790E0DF91CF910C94F70D0F931F93F4
:10175000CF93DF930E940F0BC0E001E010E0D6E0D2
:101760002C2F30E080916501082E000C990B821718
:101770009307F4F01093BC050093BB054AE0C49FA7
:10178000C00111240C969093BE058093BD05D29F95
:10179000F001D39FF00D1124E757FE4F448155818E
:1017A0006081718187EA91E00E94E204CF5FD8CF27
:1017B0008BEB91E0DF91CF911F910F910C94E90792
:1017C000EF92FF920F931F93CF937C01C09165011D
:1017D000C4307CF089E891E08C010A5F1F4FB801AA
:1017E0000E944A05C801015A1140B1F7C150C09387
:1017F0006501209165012F5F2093650136E023028A
:10180000C0011124B70187579E4FCF911F910F91AF
:10181000FF90EF900C944A05FC01809181018111A9
:1018200003C08FEF9FEF08959FB7F89482E08093F5
:10183000E9002091F20030E01216130614F421E0C2
:1018400030E02115310559F0289884E68093800115
:101850008091F10080838091F200882319F09FBF6E
:10186000C90108958BE68093E800F9CF2FB7F8946B
:1018700083E08093E9009091E800892F807295FFC2
:1018800004C09091F20080E4891B2FBF08958091DD
:10189000C60581110DC082E08093C20584E080936B
:1018A000C3051092C5051092C40581E08093C6055A
:1018B00082EC95E00895CF93DF931F92CDB7DEB70A
:1018C0006983DC01ED91FC910280F381E02D41E020
:1018D00050E0BE016F5F7F4F09950F90DF91CF9170
:1018E000089583E08093E9008091F200882319F045
:1018F0008AE38093E80008950E94360C90E00895F2
:10190000CF93DF931F92CDB7DEB7FC018485958519
:1019100097FD05C02FEF3FEF358724870BC0CE0121
:1019200001960E940C0C019719F4898190E002C085
:101930008FEF9FEF0F90DF91CF9108950F931F933B
:10194000CF93DF931F92CDB7DEB78C01FC01848566
:10195000958597FF0EC0CE0101960E940C0C019751
:1019600019F4298130E002C02FEF3FEFF8013587ED
:101970002487F801848595850F90DF91CF911F9181
:101980000F910895FC018485958597FD0BC09FB745
:10199000F89482E08093E9008091F2009FBF90E08C
:1019A000019608959FB7F89482E08093E9008091B2
:1019B000F2009FBF90E008958F929F92AF92BF92E6
:1019C000CF92DF92EF92FF920F931F93CF93DF930B
:1019D0005C016B017A0180910F01882309F45BC0DF
:1019E00080918101882309F456C080917F0180FF96
:1019F00005C08091E00082608093E000E70110E084
:101A00000AEF83E0882E9AE3992E2097D9F10E945D
:101A1000360C81110AC0015009F43DC061E070E04C
:101A200080E090E00E944807F0CF282F30E0C217F6
:101A3000D3070CF48C2F4FB7F8948092E900909163
:101A4000E80095FF1DC0282F30E0C21BD30BF60124
:101A5000982F915020F081918093F100FACFC20E1F
:101A6000D31E112319F09092E80009C08091E8007C
:101A700085FD06C09092E80011E0209709F010E083
:101A80004FBFC3CF1111C3CF5D9884E68093C105CA
:101A90001E141F0444F081E090E0F50193838283DB
:101AA00080E090E001C0C701DF91CF911F910F91BD
:101AB000FF90EF90DF90CF90BF90AF909F908F906E
:101AC0000895CF92DF92EF92FF920F931F93CF93DF
:101AD000DF931F92CDB7DEB7182F062FE42E862F87
:101AE000880F8E5F99830E94A51183E00E94A51143
:101AF000F12EC12E9981D92E8C2D8F19801798F433
:101B0000F601E7FE02C0849101C080810E94A51108
:101B1000182F80E00E94A5118123FFEFCF1ADF0A62
:101B20008111EACF01C081E00F90DF91CF911F9129
:101B30000F91FF90EF90DF90CF900895DF92EF929A
:101B4000FF920F931F93CF93DF93D82E8A017B01CF
:101B5000E40EF51EEB01CE15DF0571F0D7FE03C0D4
:101B6000FE01849101C088810E94A51121968111F6
:101B7000F2CF8FEF9FEF01C0C801DF91CF911F918E
:101B80000F91FF90EF90DF9008950F931F93CF93E5
:101B9000DF931F92CDB7DEB782E0898342E450E045
:101BA00069EA78E080E80E949E0D0E94470CDC0103
:101BB00012960D911C9113970115110569F0D8012A
:101BC000ED91FC910280F381E02DBE016F5F7F4FAC
:101BD000C801099597FF07C089810F90DF91CF91C8
:101BE0001F910F910895F80100851185E5CF5F924F
:101BF0006F927F928F929F92AF92BF92CF92DF921D
:101C0000EF92FF920F931F93CF93DF93EC018B0121
:101C10007A01A901461B570B57FF03C05195419507
:101C20005109C7018C1B9D0B97FF03C091958195AE
:101C30009109552453948417950714F0512C0AC028
:101C40009E2D8F2D7901292F382F9C2F8D2FE80164
:101C5000092F182FEC16FD0654F4902F812F8901BF
:101C6000292F382F9C2F8D2FE701E92EF82E3701D1
:101C70006C1A7D0A5901A01AB10AB7FE03C0B194CB
:101C8000A194B108630177FE03C08FEFC81AD80A88
:101C9000D594C7940217130714F08FEF01C081E0A9
:101CA000882E880F9908EC16FD06B4F021E0552027
:101CB00019F0AE01B80102C0A801BE0187EA91E0A7
:101CC0000E94D409CA18DB08D7FE04C0080D191DEC
:101CD000C60CD71C2196E7CFDF91CF911F910F91B2
:101CE000FF90EF90DF90CF90BF90AF909F908F903C
:101CF0007F906F905F90089520E08BEB91E0B22F82
:101D0000B111BFEFFC010024B193B193B193B19332
:101D10000394D1F70895CF93DF9390918801923087
:101D200009F46EC0C82F292F30E0F901E659F64FAB
:101D3000D491F901E253FA4F80839F5F9093880119
:101D400061E00E944F06D13019F0D33039F158C00C
:101D500010928000109281008091810088608093B1
:101D60008100809181008160809381008C2F90E0C0
:101D7000FC01E55BF64FE491F0E0EE0FFF1FE35C42
:101D8000F64F259134913093870120938601FC0111
:101D9000E25EF64F84918093850132C010929000EC
:101DA00010929100809191008860809391008091C1
:101DB00091008160809391008C2F90E0FC01E55BA5
:101DC000F64FE491F0E0EE0FFF1FE35CF64F259134
:101DD00034913093840120938301FC01E25EF64F3D
:101DE00084918093820180918801882321F06CE3A3
:101DF00080E00E94F90780E0DF91CF910C94E40825
:101E0000DF91CF9108951F920F920FB60F92112478
:101E10008F939F938091E1009091E100937F909345
:101E2000E10083FF0FC01092E90091E09093EB0076
:101E30001092EC0092E39093ED001092810198E0F3
:101E40009093F00082FF20C093E09093E90090917E
:101E5000F200992319F09AE39093E8009091C1055C
:101E6000992339F09091C10591509093C105992320
:101E700089F190918001992339F0909180019150DE
:101E800090938001992341F184FF10C08091E2007A
:101E90008E7E81608093E2008091E1008F7E80934E
:101EA000E10080917F018E7E806111C080FF16C0AD
:101EB0008091E2008E7E80618093E2008091E1005B
:101EC0008E7E8093E10080917F018E7E8160809381
:101ED0007F0104C05D9ACDCF289AD6CF9F918F9174
:101EE0000F900FBE0F901F9018951F920F920FB674
:101EF0000F921124CF92DF92EF92FF920F931F93D4
:101F00002F933F934F935F936F937F938F939F9301
:101F1000AF93BF93EF93FF93CF93DF93CDB7DEB72C
:101F20006C97DEBFCDBF1092E9008091E80083FF7F
:101F3000EDC168E0CE0145960E94D31182EF8093F7
:101F4000E8008D8987FF05C09091E80090FFFCCFE5
:101F500003C09EEF9093E800982F907609F0C6C0DA
:101F60009E892F89188D91110CC0803829F4809199
:101F70007E018093F10002C01092F1001092F100F6
:101F800048C1422F50E0512B913051F4811141C191
:101F90004130510509F03DC180917E018D7F0BC01C
:101FA000933061F4811135C14130510509F031C1DF
:101FB00080917E01826080937E012BC1953041F437
:101FC0008091E80080FFFCCF20682093E30021C1CE
:101FD000963009F05FC0EB8CFC8C1092E9001092F7
:101FE0007C0110927B01123091F510927A011092CF
:101FF00079010E94C50D99E0BE016F5F7F4FDB0143
:10200000E92F1D92EA95E9F799831A8391E09E835F
:1020100090EA98879AEF998720917B0130917C0113
:10202000275F3F4F3C832B838D831092E9001092F2
:102030007C0110927B01F0927A01E092790149E0F3
:1020400050E080E00E949E0D0E94C50DE2C0F0921B
:102050007A01E09279010E94470CDC011296ED9022
:10206000FC901397E114F10409F4C0C0D701ED917D
:10207000FC910480F581E02DBE016B5E7F4FC701AE
:102080000995009719F00CF0C4C0C7C0F701E084AF
:10209000F184E8CF973009F4C0C0983021F481E092
:1020A0008093F100B6C0993009F0B3C0837009F095
:1020B000B4C0EBE1F1E081E021E036E390819923C7
:1020C00061F08093E9002093EB0091919093EC00F4
:1020D0003093ED008F5F873089F78EE78093EA00B9
:1020E0001092EA008F898093810193C08B8D9C8D23
:1020F0001092E90010927C0110927B0190937A017A
:1021000080937901898D811156C08E899D89913A7C
:1021100059F4813209F081C047E050E068E071E095
:1021200080E00E949E0D75C0913209F076C0833226
:1021300089F4888D90E0982F88272F89822BA0E042
:10214000B0E08093040190930501A0930601B09341
:1021500007015FC0803269F48091E80082FFFCCF04
:1021600067E088E091E00E94D3118BEF8093E80054
:1021700006C0823209F04DC08F8980930F01809193
:102180007D01882319F0EEEFFAE002C0E0E0F8E00C
:102190008091080190910901A0910A01B0910B0171
:1021A000803B9440A105B10509F07BC080910F01EF
:1021B00080FF93C076C00E94470CDC0112960D91FF
:1021C0001C9113970115110541F1D801ED91FC9176
:1021D0000190F081E02DBE016B5E7F4FC801099533
:1021E000811117C0F80100851185ECCF113009F479
:1021F0004EC0133091F48F89882309F445C0823092
:1022000081F440E860E18DE099E00E94610D88234F
:1022100021F08EEF8093E80079C081E28093EB009B
:1022200075C0813029F440E86BE081E099E0EDCFA2
:10223000833099F70E94470CDC011296ED90FC90D8
:1022400013978E010F5F1F4F6801E114F10479F0BD
:10225000D701ED91FC910680F781E02DB801C7010F
:102260000995080F111DF701E084F184EECFD80124
:102270001C92F60101900020E9F73197BF016C191B
:102280007D0940E0C601C1CF6BEE78E002C06FEE81
:1022900078E06115710509F2FB01449150E080E896
:1022A00040CF0FB6F894A895809160008861809324
:1022B0006000109260000FBEA895EE3F2AE0F20782
:1022C00039F08091FE0A9091FF0A91838083A1CF1B
:1022D0001092FF0A1092FE0A9CCFEE3F8AE0F807A8
:1022E00031F0808191819093FF0A8093FE0A87E705
:1022F00097E7918380839BE088E10FB6F894A895D7
:10230000809360000FBE9093600083CF6C960FB6F1
:10231000F894DEBF0FBECDBFDF91CF91FF91EF915B
:10232000BF91AF919F918F917F916F915F914F91ED
:102330003F912F911F910F91FF90EF90DF90CF90E1
:102340000F900FBE0F901F90189540917B015091F8
:102350007C012091790130917A0142175307B4F43E
:102360009091E8009570E1F39091E80092FD19C01A
:102370008093F10080917B0190917C0101968F7395
:102380009927892B19F48EEF8093E80080917B01C7
:1023900090917C01019690937C0180937B0181E078
:1023A000089580E00895615030F02091F100FC0123
:1023B00020830196F8CF289884E6809380010895C1
:1023C000CF93DF93CDB7DEB728970FB6F894DEBF73
:1023D0000FBECDBF789484B5826084BD84B5816022
:1023E00084BD85B5826085BD85B5816085BD8091E0
:1023F0006E00816080936E00109281008091810058
:10240000826080938100809181008160809381004F
:102410008091800081608093800080919100826033
:1024200080939100809191008160809391008091D0
:1024300090008160809390008091C10084608093BF
:10244000C1008091C10082608093C1008091C10071
:1024500081608093C1008091C30081608093C3003C
:102460008091C00082608093C0008091C200816032
:102470008093C20080917A00846080937A0080917A
:102480007A00826080937A0080917A0081608093E4
:102490007A0080917A00806880937A00109281019E
:1024A00010927E0110927F018091D700816080930D
:1024B000D70080EA8093D80089B5806189BD89B54D
:1024C000826089BD09B400FEFDCF61E070E080E06C
:1024D00090E00E9448078091D8008F7C80618093B3
:1024E000D8008091E000807F8093E0008091E1003F
:1024F0008E7E8093E1008DE08093E200559A209AD1
:10250000EEEFFFE7859194918B3F9C4D19F481E0AC
:1025100080937D011FB7F89480915C01811127C0E1
:10252000ECE5F9E08491EFE2F9E09491E82FF0E036
:10253000EE0FFF1FE856FE4FA591B491EC91E923F1
:1025400021F461E081E10E94EC0561E081E10E94FB
:102550004F068CB580618CBD8CB580648CBD61E00C
:102560008FE00E944F0661E080E10E944F0680915B
:102570005C018F5F80935C011FBF03EB11E0F801EA
:1025800084910E5F1F4F31966491882319F00E9449
:102590004F06F5CF61E086E00E94EC0561E070E057
:1025A00080E090E00E94480760E086E00E94EC0531
:1025B0006AE070E080E090E00E94480761E086E019
:1025C0000E94EC05E7E5F9E0E491F0E0EE0FFF1F73
:1025D000E35CF64F85919491909362018093610141
:1025E000EAE2F9E0E491E0936001EFE4F9E0E491DC
:1025F000F0E0EE0FFF1FE35CF64F8591949190930E
:102600005F0180935E01E2E2F9E0E491E0935D0115
:102610008CB58C7F8CBD8DB581608DBDE0916101E5
:10262000F0916201908180916001982B9083A0913C
:102630005E01B0915F012C9190915D019095922384
:102640009C939081809589238083E6EAF1E021E0E4
:10265000E33BF20749F084918EBD00000DB407FE04
:10266000FDCF8EB53196F3CFE0915E01F0915F0121
:10267000908180915D01892B8083E0916101F091CF
:10268000620190818091600180958923808380918F
:102690006400816080936400809164008260809314
:1026A000640080916400806880936400809164007D
:1026B00080648093640080916500816080936500F0
:1026C0000E94CC0787FF1AC080E094E01EBC000087
:1026D0000DB407FEFDCF2EB50197C1F760E070E0A5
:1026E0008AE00E948B0660E070E08BE00E948B061F
:1026F00060E070E089E00E948B06FFCF0EEE1FEFD6
:1027000066246A94712C78E0A72EB12C88E1801B96
:10271000B301681B71098AE00E948B066FEF70E0BD
:102720008BE00E948B066FEF70E089E00E948B06C1
:102730000E947C0E302E40EF0417A4F48BEB91E046
:102740000E94E9076BE170E080E090E00E9448079A
:1027500050EF351264C06AEF70E080E090E00E94B4
:1027600048075DC0980117FF04C022273327201BAC
:10277000310B27703327C80117FD079653E0959555
:1027800087955A95E1F717FF05C00197B501621BC0
:10279000730B9B017C01F694FE2CEE24F794E794D6
:1027A00040E050E02501421A530AF701E058FF4F7C
:1027B0004F018F3FFFEF9F0744F40196485A5F4F48
:1027C0007401403B510589F7B9CFD701A15BBD4FDB
:1027D00060E070E08F3FEFEF9E0709F44CC2FB0111
:1027E000E40FF51FE851FF4F24906D01C818D90878
:1027F000CE0CDF1CE22DF0E0022E02C0EE0FFF1F18
:102800000A94E2F7F887EF83F6012080EF81F885DC
:10281000E229F887EF832F80F60120822CC20F5F18
:102820001F4F0931110509F071CF6EEE72E080E0A3
:1028300090E00E9448076FEF70E08AE00E948B06EC
:102840006FEF70E08BE00E948B066FEF70E089E025
:102850000E948B0685E00E948B0E8DE00E948B0EFD
:102860001092560182E090E00E94D517882369F00B
:1028700080916400877F8093640080916500877FEA
:102880008093650081E080935B018EE18093AD01D0
:1028900081E28093B001809164008E7F8093640018
:1028A00087EC80937C0080E280937B0062E070E0A4
:1028B00080E090E00E94480780917A0080648093D5
:1028C0007A0080917A0086FDFCCF0091780010910B
:1028D0007900009510958EE580937C0062E070E0B1
:1028E00080E090E00E94480780917A0080648093A5
:1028F0007A0080917A0086FDFCCFE0907800F0901D
:1029000079000E9423079B01AC01209530954095EA
:102910005095E094F094E09ED001E19EB00DF09EC1
:10292000B00D11240E94FC176B017C010E9423074B
:102930006C0D7D1D8E1D9F1D611571058105910515
:1029400011F00E94BC178091640081608093640044
:102950000E947C0E11E01093BF058BEB91E00E946A
:10296000E9071093640101E083E0882E912CA12CEB
:10297000B12C92E0D92E20E0E22E20E0F22E8FB78B
:10298000F89440915701509158016091590170910C
:102990005A018FBF8091B901882389F08091B101DC
:1029A000442E481A4092BA018091AE019091AF0135
:1029B00001969093AF018093AE011092B90180917E
:1029C000B5019091B601A091B701B091B801481737
:1029D00059076A077B077CF4841B823008F444C1E2
:1029E00083B7817F83BF83B7816083BF889583B7B7
:1029F0008E7F83BF39C18091B0012A013B01480E0F
:102A0000511C611C711C4092B5015092B60160923C
:102A1000B7017092B8014093B1015093B201609335
:102A2000B3017093B4011093B9010E947C0E8091A0
:102A30000301882309F45DC00E94CC0787FF04C00E
:102A400080910201811132C10E94CC0784FF04C031
:102A500080910201811132C180910101833014F013
:102A6000109201018091010187FDD09201019091A6
:102A7000640180910101911119C0109364018130AA
:102A800039F0823041F081112BC06DE972E005C050
:102A90006CE872E002C069E772E0CE0101960E9424
:102AA0007905CE0101960E94E00B16C0813039F005
:102AB000823041F0811114C069E672E005C068E51A
:102AC00072E002C065E472E0CE0101960E947905D1
:102AD000CE0101960E94030BCE0101960E9474055F
:102AE0000E94CC0783FFB8C080910201811152C0BF
:102AF000B3C00E94CC0787FF05C0809102018111FD
:102B000068C104C00E94CC0784FDF7CF80916401A6
:102B1000811122C0109364016EEC71E0CE01019628
:102B20000E947905CE0101960E94E00BCE0101962C
:102B30000E94740580916301811103C06AEC71E009
:102B400002C06CEC71E0CE0101960E947905CE01C5
:102B500001960E94E00B11C080916301811103C0B6
:102B600066EC71E002C068EC71E0CE0101960E9453
:102B70007905CE0101960E94030BCE0101960E94B9
:102B800074050E94CC0783FF67C080910201811108
:102B900028C162C010920301109202010E94B7176F
:102BA000A50194010E94DD1760930001613009F4D2
:102BB0008DC0623009F4CBC061114CC062E372E099
:102BC000CE0101960E947905CE0101960E94E00B8C
:102BD000CE0101960E9474050E94A60B68EC70E07D
:102BE00080E090E00E94480780910101813071F4FB
:102BF0006EE272E0CE0101960E947905CE01019647
:102C00000E94E00BCE0101960E94740580910101A3
:102C100081110EC069E272E0CE0101960E94790531
:102C2000CE0101960E94E00BCE0101960E94740530
:102C300080910101823071F464E272E0CE0101966C
:102C40000E947905CE0101960E94E00BCE0101960B
:102C50000E947405109264010E94A60B0E94CC078A
:102C60008C7911F410930201E114F10409F487CE78
:102C70000E94000084CE2115310581F0FB01E40F94
:102C8000F51FE851FF4FE491F0E0042C02C0F595E8
:102C9000E7950A94E2F7DC90ED29EC936F5F7F4FA4
:102CA00011966835710509F095CD87CD1092020116
:102CB000809101018F5F80930101C6CE10920201C5
:102CC00080910101815080930101C6CE60E172E0E4
:102CD000CE0101960E947905CE0101960E94E00B7B
:102CE000CE0101960E9474050E94A60B68EC70E06C
:102CF00080E090E00E94480780910101823071F4E9
:102D00006CE072E0CE0101960E947905CE01019639
:102D10000E94E00BCE0101960E9474058091010192
:102D2000813071F467E072E0CE0101960E9479056E
:102D3000CE0101960E94E00BCE0101960E9474051F
:102D400080910101811186CF62E072E077CF6CEE55
:102D500071E0CE0101960E947905CE0101960E9494
:102D6000E00BCE0101960E9474050E94A60B68EC50
:102D700070E080E090E00E9448078091010181119D
:102D80000EC068EE71E0CE0101960E947905CE0179
:102D900001960E94E00BCE0101960E94740580917D
:102DA0000101823071F463EE71E0CE0101960E9460
:102DB0007905CE0101960E94E00BCE0101960E949A
:102DC000740580910101813009F044CF6EED71E00E
:102DD00035CF1092020180916301802780936301B7
:102DE00095CE1092020180916301882339F01092F0
:102DF000010110920001109303012CCF0E947C0E60
:102E00000E940F0B8BEB91E00E94E90780E090E0BD
:102E10000E94841ACF93DF93C7EAD1E02697CE01B0
:102E20000E94740581E0C938D807C1F7DF91CF91BE
:102E30000895E0EDF5E01382128288EE93E0A0E0C1
:102E4000B0E084839583A683B78385E291E0918384
:102E500080838FEF9FEF95878487E7EAF1E0138205
:102E6000128287E391E0918380838CE3868380E103
:102E700081871086178216861786108A118A128A11
:102E80001092BC051092BB051092BE051092BD05B4
:102E900081E08093BF056FE371E089E891E00E94D3
:102EA000B1056FE371E08FE891E00E94B1056FE337
:102EB00071E085E991E00E94B1056FE371E08BE973
:102EC00091E00E94B1056FE371E081EA91E00C941A
:102ED000B1058F929F92AF92BF92CF92DF92EF9205
:102EE000FF92CF93DF93EC01688179818A819B8186
:102EF000611571058105910521F464E279ED8BE599
:102F000097E02DE133EF41E050E00E94DD174901E9
:102F10005A019B01AC01A7EAB1E40E94FC176B01C6
:102F20007C01ACEEB4EFA50194010E940A18DC010B
:102F3000CB018C0D9D1DAE1DBF1DB7FF03C00197BA
:102F4000A109B04888839983AA83BB83BC01CD01C2
:102F50009F77DF91CF91FF90EF90DF90CF90BF9060
:102F6000AF909F908F9008950E946917089580E117
:102F700091E00E9469170895609310017093110108
:102F800080931201909313010895FB01DC010590D9
:102F90000D920020E1F70895FC0105900020E9F76B
:102FA000809590958E0F9F1F0895F999FECF92BD41
:102FB00081BDF89A992780B50895052E97FB1EF4D8
:102FC00000940E94F41757FD07D00E94461807FC92
:102FD00003D04EF40C94F4175095409530952195FC
:102FE0003F4F4F4F5F4F0895909580957095619535
:102FF0007F4F8F4F9F4F08950E946818A59F900D97
:10300000B49F900DA49F800D911D11240895B7FFCA
:103010000C94FC170E94FC17821B930B08952F92AF
:103020003F924F925F926F927F928F929F92AF9258
:10303000BF92CF92DF92EF92FF920F931F93CF93A5
:10304000DF93CDB7DEB7CA1BDB0B0FB6F894DEBF3C
:103050000FBECDBF09942A88398848885F846E8462
:103060007D848C849B84AA84B984C884DF80EE80AC
:10307000FD800C811B81AA81B981CE0FD11D0FB6B5
:10308000F894DEBF0FBECDBFED010895A1E21A2E68
:10309000AA1BBB1BFD010DC0AA1FBB1FEE1FFF1FFC
:1030A000A217B307E407F50720F0A21BB30BE40B4C
:1030B000F50B661F771F881F991F1A9469F7609593
:1030C0007095809590959B01AC01BD01CF0108954D
:1030D000A29FB001B39FC001A39F700D811D112459
:1030E000911DB29F700D811D1124911D0895EE0F49
:1030F000FF1F0590F491E02D0994CF93DF93823068
:10310000910510F482E090E0E0912206F091230610
:1031100020E030E0C0E0D0E0309711F140815181F3
:1031200048175907C0F04817590761F48281938105
:10313000209719F09B838A832BC09093230680935A
:10314000220626C02115310519F04217530718F43D
:103150009A01BE01DF01EF010280F381E02DDCCF97
:103160002115310509F1281B390B2430310590F464
:1031700012968D919C9113976115710521F0FB01B9
:103180009383828304C09093230680932206FD01DB
:10319000329644C0FD01E20FF31F819391932250B8
:1031A00031092D933C933AC020912006309121069D
:1031B000232B41F420911601309117013093210601
:1031C000209320062091140130911501211531051D
:1031D00041F42DB73EB74091180150911901241BBD
:1031E000350BE0912006F0912106E217F307A0F4D9
:1031F0002E1B3F0B2817390778F0AC014E5F5F4F4D
:103200002417350748F04E0F5F1F50932106409357
:1032100020068193919302C0E0E0F0E0CF01DF91BE
:10322000CF9108950F931F93CF93DF93009709F4E5
:103230008CC0FC01329713821282009122061091F9
:1032400023060115110581F420813181820F931F1E
:1032500020912006309121062817390779F5F0933F
:103260002106E093200671C0D80140E050E0AE177F
:10327000BF0750F412962D913C911397AD01211583
:10328000310509F1D901F3CF9D01DA01338322839E
:1032900060817181860F971F8217930769F4EC0193
:1032A00028813981260F371F2E5F3F4F31832083BE
:1032B0008A819B8193838283452B29F4F093230693
:1032C000E093220642C01396FC93EE931297ED0111
:1032D000499159919E01240F351FE217F30771F4AC
:1032E00080819181840F951F029611969C938E93F5
:1032F0008281938113969C938E931297E0E0F0E085
:10330000D80112968D919C911397009719F0F801AE
:103310008C01F6CF8D919C9198012E5F3F4F820FCB
:10332000931F20912006309121062817390769F450
:10333000309729F4109223061092220602C01382BD
:1033400012821093210600932006DF91CF911F91E6
:103350000F910895A0E0B0E0E0EBF9E10C941318B0
:10336000EC01009721F4CB010E947D18B8C0FC014C
:10337000E60FF71F9C0122503109E217F30708F40A
:10338000ACC0D9010D911C91119706171707B0F029
:103390000530110508F49FC0C801049786179707E8
:1033A00008F499C002501109061B170B01931193E1
:1033B0006D937C93CF010E9412198DC05B01A01AFE
:1033C000B10A4C01800E911EA0912206B0912306F5
:1033D00040E050E0E12CF12C109709F44AC0A81508
:1033E000B905D1F56D907C901197630182E0C80E0C
:1033F000D11CCA14DB0480F1A3014A195B096A01DC
:1034000082E0C80ED11C1296BC9012971396AC9114
:10341000B5E0CB16D10440F0B282A3835183408340
:10342000D9016D937C930AC00E5F1F4FC301800FBB
:10343000911FF90191838083EB2DFA2FE114F104A0
:1034400031F0D7011396FC93EE93129744C0F0939A
:103450002306E09322063FC08D919C911197481757
:10346000590708F4AC017D0112960D90BC91A02D76
:10347000B3CF809120069091210688159905E1F43B
:1034800046175707C8F480911401909115010097D1
:1034900041F48DB79EB74091180150911901841BDA
:1034A000950BE817F907C8F4F0932106E09320067E
:1034B000F901718360830FC0CB010E947D187C01EC
:1034C000009759F0A801BE010E94741ACE010E9413
:1034D0001219C70104C0CE0102C080E090E0CDB750
:1034E000DEB7EEE00C942F18FB01DC0102C0019066
:1034F0000D9241505040D8F70895FB01DC01019036
:103500000D920020E1F7089514E0C7EBD4E004C069
:10351000FE010E9477182196C83BD107C9F7F8949D
:02352000FFCFDB
:10352200FFFF0101FFFFFFFF00E1000000000000BC
:103532000100000000002406800000C1808100001C
:1035420000000000005B0CDC0C7C0C710CC20C80D7
:103552000C9E0C00000000FB09E2040E050D052084
:103562002020202020202020202020202020202059
:06357200202020200000D3
:00000001FF
